:020000041000EA
:1000000000B5324B212058609868022188439860DF
:10001000D860186158612E4B002199600221596106
:100020000121F02299502B49196001219960352056
:1000300000F044F80222904214D00621196600F024
:1000400034F8196E01211966002018661A6600F04E
:100050002CF8196E196E196E052000F02FF8012189
:100060000842F9D1002199601B49196000215960AB
:100070001A491B48016001219960EB211966A021F2
:10008000196600F012F800219960164914480160C1
:100090000121996001BC002800D000471248134993
:1000A000086003C880F30888084703B5996A0420EC
:1000B0000142FBD001200142F8D103BD02B5186610
:1000C0001866FFF7F2FF186E186E02BD00000240BE
:1000D000000000180000070000035F00212200005C
:1000E000F4000018222000A00001001008ED00E03C
:1000F00000000000000000000000000074B24E7A12
:1001000000200420F7010010C3010010C5010010F9
:10011000C1010010C1010010C1010010C101001097
:10012000C1010010C1010010C1010010C701001081
:10013000C1010010C1010010C9010010CB01001065
:10014000CD010010CD010010CD010010CD01001037
:10015000CD010010CD010010CD010010CD01001027
:10016000CD010010CD010010CD010010CD01001017
:10017000CD010010CD010010CD010010CD01001007
:10018000CD010010CD010010CD010010CD010010F7
:10019000CD010010CD010010CD010010CD010010E7
:1001A000CD010010CD010010CD010010CD010010D7
:1001B000CD010010CD010010CD010010CD010010C7
:1001C00000BE00BE00BE00BE00BE00BEEFF3058054
:1001D000103800BEF2EB8871D8B40010FCB40010E7
:1001E0003402001090A31AE700201F49086006C8D7
:1001F00081F3088810471D48006800282FD10DA4FE
:100200000ECC002902D000F012F8F9E71849194A7B
:10021000002000E001C19142FCD1174988471749ED
:1002200088471749884700BEFDE701C901C29A42C5
:10023000FBD37047FCB40010C0000020F80E002073
:1002400034C30010000004200000042034C3001058
:10025000001004200010042000000000704709482E
:1002600005F092FB0047000008ED00E0000000D020
:10027000F80E00203C1D0020E1460010610F001028
:100280009D4600105756000006005250ABB3605315
:1002900028AD001006005250861C030238AD001035
:1002A000060052505422A29D44AD00100500525049
:1002B000DE65F46834C30010F8B5C04610B5064CCE
:1002C0002378002B07D1054B002B02D0044800E017
:1002D00000BF0123237010BD0810002000000000A3
:1002E000D0900010044B10B5002B03D003490448F4
:1002F00000E000BF10BDC046000000000C10002050
:10030000D090001010B502F09BF8002800D110BD6D
:1003100002F0BEF8041EFAD001000B4806F0F6F811
:100320000A4B1C700A4B01221A7003F055FC00297D
:1003300003DB084B18605960E9E7074B074A3F2188
:10034000074804F0AFF9C046D0900010341D0020DB
:10035000331D002000100020E4900010E0970010F2
:100360000091001000B585B00F226A441070002380
:10037000009301332721024808F01AFD05B000BDA3
:10038000D00E0020D0B504009626B600002730001D
:10039000390003F041FB04202043C0B2FFF7E2FF25
:1003A0003000390003F038FB042320009843FFF7A6
:1003B000D9FF3000390003F02FFBD0BD70B50F23FB
:1003C00005009D436DB249B20D4308231D43EDB2B4
:1003D00004010C4364B21C43E4B22800FFF7C2FFDF
:1003E0002800FFF7CFFF2000FFF7BCFF2000FFF73A
:1003F000C9FF70BD10B500210120FFF7DFFF10BD60
:1004000010B5002806D180310800C0B20021FFF7E6
:10041000D5FF10BDC0310800F7E710B5040003E0B8
:1004200001340121FFF7CAFF20780028F8D110BD60
:1004300010B500210320FFF7C1FF00210320FFF7C3
:10044000BDFF00210320FFF7B9FF00210220FFF7C5
:10045000B5FF00210620FFF7B1FF00212820FFF79C
:10046000ADFF00210C20FFF7A9FFFFF7C3FF10BD70
:1004700010B5134C1349200008F00CFD01210A208F
:1004800002F096F80121122002F092F801211320C7
:1004900002F08EF80121102002F08AF8092002F003
:1004A0006FF9D0231B06802292005A625A6100F035
:1004B000BFFE054B1860210001F01CF810BDC046BE
:1004C00000C0034040420F00741A002010B582B0F3
:1004D000204B0193FA20400003F0CAFA0EE01E48B8
:1004E00006F014F81D4B18680130042201A908F029
:1004F0000BFD002828D01A4806F008F8194806F025
:1005000005F8164B186801F025FF0028F9D01648A9
:1005100005F0FCFF114C206801F030FF134805F096
:10052000F5FF2068010001F0D7FE114805F0EEFF4D
:100530000024032CD3DC094B1B681B1959780D4888
:1005400005F0E4FF0134F4E70B4805F0DFFF02B0EB
:1005500010BDC046BA788277AC910010741A0020A2
:10056000CC91001064910010789100108C910010D3
:100570009C910010A8910010B091001000487047A5
:10058000D1070000F0B5C64600B507008846002632
:1005900018E07419A4003C19206808F0D9FC400840
:1005A0000821091A2800FFF72BFF2068FFF735FF05
:1005B0000135012DEDDDFA20C00003F059FAFFF7F7
:1005C00019FF0236464501DA0025F2E780BCB8463D
:1005D000F0BD0023032B04DCC25C2A2A03D00133C4
:1005E000F8E7012070470020FCE70000F0B5DE4688
:1005F00057464E464546E0B593B0674805F056FF6E
:10060000664B1193002304E00FAAFF21D15401335C
:10061000DBB2052BF8D9002760E0614805F046FF02
:10062000604805F073FF039C05E005AB195D5E486B
:1006300005F06CFF01340F2CF7DD0A2005F002FFF6
:1006400005AA137A1B02517A0B431B051B0D994611
:100650000A93917A0901D37A180901438B460B91C9
:100660001B02117B0B431B051B0D98460C93517B02
:100670000901977B380901438A460D913F02D37BDC
:100680001F433F053F0D0E97484805F00FFF08E058
:10069000741CB6000AABF2582100454805F036FF3D
:1006A0002600042EF4DD434B4A461A60424B5A465C
:1006B0001A60424B42461A60414B52461A60414B07
:1006C0001F602F0006E0404805F0F0FE02E03F48C2
:1006D00005F0ECFE3E4B186801F035FA002F49D1C9
:1006E0003C4805F0E3FE3A4B186801F033FE002861
:1006F000F9D0394805F0DAFE354B186801F03EFEB6
:10070000051E33D0354805F0D1FE314B1868013055
:10071000042211A908F0F8FB0390061ED7D1304837
:1007200005F0C4FE2F4805F0C1FE294B1868009063
:100730000FAB0A22602101F02BFA0028C3D10B2451
:1007400002AB9C46644412232370274805F0AEFE9A
:100750001F4B1868230005AA0A2101F04AFA002855
:1007600000D15AE7214805F0A1FEB3E7204805F083
:100770009DFEB3E7164B186801F0E5F91D4805F03A
:1007800095FEFA20400003F073F913B0F0BCBB46AD
:10079000B246A946A046F0BDE49100108528EEC7F8
:1007A000889200109C920010AC920010B49200103D
:1007B000C4920010B80D0020BC0D0020C00D002018
:1007C000C40D0020C80D0020F092001010930010FE
:1007D000741A00200092001014920010349200103D
:1007E000449200105892001074920010D49200109D
:1007F000289300104093001005280BD88000074B69
:100800001B589F46064870470648FCE70648FAE72B
:100810000648F8E70648F6E70648F4E7A093001014
:1008200094930010709300107C9300108893001034
:100830004C9300106493001010B586B001A92D48A8
:100840000B00020013CA13C303CA03C3002409E048
:10085000009A531C19D0284B1A60611C274805F0D8
:1008600055FE0134042C42DCA30001AA99588023D0
:100870005B059C4661440422684605F0E1FC042CBB
:10088000EFD8A3001E4AD3589F462200E3E7009A00
:10089000531C06D01B4B1A60611C184805F036FE2D
:1008A000DFE70022F6E7009A531C06D0164B1A60C9
:1008B000611C124805F02AFED3E70022F6E7009AF1
:1008C000531C06D0114B1A60611C0C4805F01EFE2B
:1008D000C7E70022F6E7009A531C06D00C4B1A60BB
:1008E000611C064805F012FEBBE70022F6E706B0E1
:1008F00010BDC046C4970010081D0020B89300101A
:10090000C49300100C1D0020101D0020141D002099
:10091000181D002010B502000800024905F008F873
:1009200010BDC046D8930010F0B5C64600B5C2B0A1
:100930000C001500052849D880003A4B1B589F46EB
:10094000394B1F68394E042280235B05F11841A8FA
:1009500005F076FC419B01333CD0002D3DD1419BFD
:100960009C424DD900234193419BBB4200D9419702
:10097000802464002200002101A805F05BFC419B5B
:100980000193EFF3108572B680214901300008F021
:1009900057FB220001A9300008F032FB85F31088D4
:1009A00042B080BCB846F0BD214B1F68FE267603DE
:1009B000C9E7204B1F68204EC5E7204B1F68FF2664
:1009C0007603C0E71E4B1F681E4EBCE71E4805F0AD
:1009D0006DFDE5E700234193BFE7419B1B19419360
:1009E0001A4D1B4B2B601B4B984619002000FFF73C
:1009F00091FF43466B6002212800FFF7C3FDB3E778
:100A00001B1B4193114D144B2B60124B9846190040
:100A10002000FFF77FFF43466B6002212800FFF7AD
:100A2000B1FDA1E704940010B80D002000B01F0034
:100A3000BC0D0020C00D002000D01F00C40D002000
:100A4000C80D002000F01F00DC930010CC0D00202A
:100A5000EC930010E81C0020F8930010F0B5DE467F
:100A600057464E464546E0B583B0284B98461B682E
:100A70009B46274F3B689A46264E33689946264D3B
:100A80002B680093254C22680192002341460B609D
:100A90003B6033602B602360002200210120FFF7C0
:100AA00043FF002200210220FFF73EFF0022002129
:100AB0000320FFF739FF002200210420FFF734FF55
:100AC000002200210520FFF72FFF4146584608600D
:100AD0005146396049463160009B2B60019A226083
:100AE0000F4B002204211C2001F0EEFD0D480E4B9F
:100AF00003600E4B43600221FFF744FD03B0F0BCDE
:100B0000BB46B246A946A046F0BDC046B80D00207F
:100B1000BC0D0020C00D0020C40D0020C80D002019
:100B2000310B0010CC0D00201C94001030940010EC
:100B300010B5034805F0BAFCFFF790FF10BDC046A2
:100B40003894001070B5234C234B2360234B636013
:100B500002212000FFF716FD214B2360214D224B7F
:100B600018682900FFF7D6FE656002212000FFF714
:100B700009FD1E4B23601E4B18682900FFF7CAFEB3
:100B8000656002212000FFF7FDFC1A4B23601A4B21
:100B900018682900FFF7BEFE656002212000FFF7FC
:100BA000F1FC164B2360164B18682900FFF7B2FEC4
:100BB000656002212000FFF7E5FC124B2360124B19
:100BC00018682900FFF7A6FE656002212000FFF7E4
:100BD000D9FC70BDCC0D00204C9400105C9400102A
:100BE00064940010E81C0020B80D002070940010E0
:100BF000BC0D00207C940010C00D002088940010D3
:100C0000C40D002094940010C80D002070B5234C32
:100C1000234B2360234B636002212000FFF7B2FCCB
:100C2000214B2360214D224B18682900FFF772FEEB
:100C3000656002212000FFF7A5FC1E4B23601E4BC0
:100C400018682900FFF766FE656002212000FFF7A3
:100C500099FC1A4B23601A4B18682900FFF75AFEBB
:100C6000656002212000FFF78DFC164B2360164BB8
:100C700018682900FFF74EFE656002212000FFF78B
:100C800081FC124B2360124B18682900FFF742FECB
:100C9000656002212000FFF775FC70BDCC0D0020BF
:100CA000A0940010B094001064940010E81C002080
:100CB000081D0020709400100C1D00207C94001072
:100CC000101D002088940010141D00209494001022
:100CD000181D002010B51E49012001F051FC1D48CF
:100CE0001D4B03601D4B43601D4B83601D4BC36058
:100CF0000421FFF747FC1C4B1B78DCB2002BFAD019
:100D0000194B00221A70194B1B78412B19D0174B25
:100D10001B78422B14D0154B1B78442B09D0134B56
:100D20001B78432BE7D1124805F0C0FBFFF76EFF9D
:100D300007E0104805F0BAFBFFF790FE002400E042
:100D400000240349002001F01BFC200010BDC04618
:100D500005030010CC0D0020BC940010C8940010B6
:100D6000D4940010E8940010331D0020341D00209E
:100D700014950010FC940010F0B5C64600B58CB078
:100D80005F4805F093FB01235B420B93002304E0D3
:100D900009AAFF21D1540133DBB2052BF8D953E066
:100DA000584805F0B3FB002405E004AB195D564834
:100DB00005F0ACFB01340F2CF7DD0A2005F042FBF7
:100DC00004AAD17B0F250D40937B1B020F2081438A
:100DD0000B431C11137B1B02577B1F43937A1B028F
:100DE000D67A1E432800FFF707FD8046474805F0E6
:100DF0005DFB4146464805F089FB2100454805F06A
:100E000085FB3900444805F081FB3100434805F07B
:100E10007DFBFFF75FFF0600FFF70EFD32002100AC
:100E20002800FFF781FD3E4805F040FBFFF704FD79
:100E300002E03C4805F03AFB3B4B186800F083FEAB
:100E4000394B186800F07FFE374C206800F030FB0B
:100E50002068364900F04EFB3548364B0360364B70
:100E600043600221FFF78EFB344805F01FFB2E4B39
:100E7000186801F06FFA0028F9D0314805F016FB28
:100E8000294B186801F07AFA002834D02D4805F073
:100E90000DFB254B1868013004220BA908F034F82B
:100EA000002824D0284805F001FB284805F0FEFA68
:100EB0001D4B1868009009AB1222602100F068FEFB
:100EC0000028B6D10F246C4412232370204805F06B
:100ED000EDFA154B1868230004AA122100F089FED0
:100EE000002800D15CE71B4805F0E0FAA4E71A48A7
:100EF00005F0DCFAA4E7194805F0D8FAA4E7C046E3
:100F0000E49100109C920010AC9200102895001003
:100F10004095001058950010749500108C950010A5
:100F2000A4950010F0920010741A002000C0034035
:100F3000CC0D0020D4950010E49500100092001014
:100F40001492001034920010449200105892001035
:100F500074920010B89500101093001028930010A0
:100F600010B505F0DFFAFFF783FA7F4A7F49804822
:100F700001F00EFA1C2001F003FCD0231B06802296
:100F800052059A6205211C2001F012FB002201216A
:100F90001C2001F025FB012204211C2001F084FB10
:100FA000744B012204211C2001F08EFB724973480E
:100FB00007F0D2FE0321042001F0FAFA03210520F4
:100FC00001F0F6FA00220121042001F009FB0022C1
:100FD0000121052001F004FBFFF72AFAFA20400066
:100FE00002F046FD1CE0664B1B78322B03D1644BAC
:100FF0005B78302B5CD06348634B0360604C44608B
:10100000624B8360624BC3600421FFF7BBFA614807
:1010100005F07CFA604B2360002323715F4A137054
:101020005E4B1B78002B52D1564C5D4B23605D4BC1
:1010300063605D4BA3605D4BE3605D4805F066FA5D
:1010400004212000FFF79EFA5A4B23605A4B63603D
:1010500002212000FFF796FAFFF738FA574805F00B
:1010600055FA574B2360574B636002212000FFF76E
:1010700089FAFFF783FA0100534B1860534805F0D3
:1010800045FA5349012001F07BFA00243C48FFF760
:10109000A0FA0028A7D14F4B1B78002BF6D04E4B5F
:1010A0001A78374B1A5501344A4B00221A70EDE773
:1010B000334B9B78302B9ED1314BDB78312B9AD13F
:1010C000464805F023FA354B01221A70A8E72D4C4B
:1010D000434B2360434B636002212000FFF752FA29
:1010E000414805F0E3F90A2005F0ACF93849002041
:1010F00001F046FA3D4B23603D4B63603D4BA360DE
:101100003D4BE36004212000FFF73CFAFFF76EFA45
:101110003A4805F0CBF93A4B19683A4805F0F6F928
:10112000394B1968394805F0F1F9394B19683948D4
:1011300005F0ECF9384B1968384805F0E7F9384BF9
:101140001968384805F0E2F90A2005F07BF9FFF745
:10115000F9FC354C206800F0ABF92068334900F009
:10116000C9F9FFF709FEC046A80D0020DC0D0020DC
:10117000980D0020310B0010A0860100D00E002039
:10118000EC0D0020CC0D0020B8960010C896001081
:10119000DC960010E09600102A2A2A2A351D00202D
:1011A000E8950010F895001000960010309400109B
:1011B0001096001038960010489600105C960010AB
:1011C0007896001084960010B41A002094960010AF
:1011D00005030010331D0020341D0020A8960010C8
:1011E000F496001008970010149700103C97001018
:1011F00048970010549700106097001070970010E7
:10120000B80D002088970010BC0D002094970010A6
:10121000C00D0020A0970010C40D0020AC97001056
:10122000C80D0020B8970010741A002000C00340B9
:1012300030B50023002B0ED00E4C22680E48530010
:101240009D18E900411811250D61511C21609B1862
:10125000DA00801830BD074A1468074A6000051993
:10126000E9005118C91800254D750D7501339BB261
:10127000E0E7C04624100020781A002070B582B044
:1012800004006B4619715A710369C046C046C046D6
:1012900001252A009A40D0263606B261C046C046D3
:1012A000C046022201A9C06807F0DAFE2369C046E1
:1012B000C046C0469D407561C046C046C04602B0AB
:1012C00070BDF0B5C64600B500AF80460C001600F4
:1012D000013230000830C008C0006946091A8D4646
:1012E0000C70002403E0651C1C5D4C55ECB2B4424C
:1012F000F9D343461B69C046C046C04601242000BE
:101300009840D0252D06A861C046C046C046434639
:10131000D86807F0A5FE43461B69C046C046C046D4
:101320009C406C61C046C046C046BD4680BCB846C5
:10133000F0BD70B582B0040000236A46D371901DE1
:1013400080235B420B4303702369C046C046C046FE
:1013500001252A009A40D0263606B261C046C04612
:10136000C04601220100E06807F07AFE01236A46C8
:1013700007320021E06807F02BFE2369C046C04613
:10138000C0469D407561C046C046C0466B46D87990
:1013900002B070BDF8B5CE46474680B5060090460F
:1013A000994680277F420F43FFB20269C046C0467C
:1013B000C04601239340D02212069361C046C04626
:1013C000C046002408E04B461D1939003000FFF7E5
:1013D000B0FF28700134E4B24445F4D33269C0460A
:1013E000C046C04601239340D02212065361C04636
:1013F000C046C046C0BCB946B046F8BD70B5040092
:101400000D001600FFF795FF02003243D2B229000B
:101410002000FFF733FF70BD70B504000D0016000B
:10142000FFF787FFB043C2B229002000FFF726FF75
:1014300070BD0000F8B505000F0014001E0000226A
:101440000221FFF71BFF04220A212800FFF716FFE5
:10145000802214212800FFF7D1FF3B002200122137
:101460002800FFF72EFF032202212800FFF706FFC6
:101470000E4C0A212800FFF75CFF430705D4013C0E
:10148000A4B2002CF5D103200FE000220221280095
:10149000FFF7F4FE44212800FFF74BFF3070422194
:1014A0002800FFF746FF70700020F8BD8813000089
:1014B00010B504000F220221FFF7E0FE322002F0F7
:1014C000D7FA02212000FFF734FFC306F9D410BD7C
:1014D00010B504002821FFF72CFF03230340032B42
:1014E00000D110BD03220243D2B228212000FFF711
:1014F000C5FEF6E7F8B50400304DC560D0263606C7
:1015000080277F03B761FA20800002F0B1FA77618B
:10151000322002F0ADFA112001F032F980239B0253
:10152000736273612649280007F0B4FC6A680223DD
:101530001A40244EC021890131430B6028680721DD
:101540004140CF200840802149010D43286080237D
:101550009B0133431A600121122001F029F8012177
:10156000132001F025F80121102001F021F80F22AD
:1015700002212000FFF782FE802254212000FFF785
:101580007DFEA92256212000FFF778FE0322582174
:101590002000FFF773FEE8225A212000FFF76EFEBD
:1015A00040222A212000FFF769FE3D22222120004F
:1015B000FFF764FE2000FFF78BFFF8BD00C003407B
:1015C00040420F0004C00340F0B5DE4657464E4689
:1015D0004546E0B587B004000F001500039310AB3B
:1015E0001B789A4614AB1B78994615AB1B789B4623
:1015F00000239846139B002B35D01A784B461E01CA
:10160000F6B2B618F6B2002202212000FFF736FE2D
:101610007F2208212000FFF731FE802214212000C4
:10162000FFF7ECFE039B524612212000FFF749FE14
:1016300032001A212000FFF721FE3A00022120008B
:10164000FFF71CFE0C2F10D0FA26F6000821200010
:10165000FFF76FFE05420ED1C30778D4013E002E7E
:10166000F4D1032074E00022C8E780221A21200070
:10167000FFF7C4FEE8E70C212000FFF75AFE050043
:10168000132303426BD1119B002B20D0129B002B04
:101690001DD014212000FFF74CFE0200129B1B7886
:1016A00083425ED3129B18704B460093119B12210C
:1016B0002000FFF76FFE18212000FFF73AFE0723F6
:1016C00003409846139B002B01D042461A70082312
:1016D000180028402B4246D1119B002B38D0129B7A
:1016E000002B35D05B46002B32D0129B1B78012B90
:1016F00006D0012B27D94246002A06D0072027E032
:101700004246042AF5D1FF2022E0023BDAB205ABC3
:1017100011992000FFF78EFE002819D1129B1B782B
:10172000119AD218023A117805AA127891420CD176
:10173000119A94466344013B1A7805AB5B789A4250
:1017400006D0072004E0072002E0072000E0032085
:1017500007B0F0BCBB46B246A946A046F0BD01208A
:10176000F6E70420F4E70220F2E730B587B00CACCE
:1017700024780DAD2D78059504940B9C03940A9C58
:101780000294019300920B0030220C21FFF71CFF02
:1017900007B030BD70B588B0060015001C001723D7
:1017A0006B441970002A22D02378012B21D9802282
:1017B0001C21FFF731FE1F236B4407221A70002201
:1017C00003920292019300942B0001321721694485
:1017D0003000FFF7CAFF00280CD12378022B0BD171
:1017E0001D336B441878002804D0012002E0042047
:1017F00000E0042008B070BD0120FBE710B5130025
:101800000A002621FFF7C6FF10BDF0B5DE46574699
:101810004E464546E0B58DB0814606910592502A68
:1018200000D984E180221C21FFF7F6FD01230793F4
:1018300000230493049B002B00D06FE1079B022B35
:1018400044D0032B54D0012B08D0052420000DB028
:10185000F0BCBB46B246A946A046F0BD09AB9322F8
:101860001A70059B002B05D0069B1B78042B2BD8E8
:10187000002100E0002100239B465B46DB00059A27
:10188000D31A5DB21B063AD400293AD009AB88229C
:101890009A70853AE817072303405B19DB10D8B22A
:1018A000EBB2984607232B405C1EA3411B18DBB20A
:1018B000002B28D1002902D0454608356DB2049B83
:1018C0009A46B0464F4690E00121D4E709AB9522F5
:1018D0001A70059B002B05D0069B1B78072B05D89B
:1018E000002100E0002103239B46C6E70121FAE71F
:1018F00009AB97221A70049906239B46BDE7002581
:10190000C2E70222C6E700290DD0032084469C4589
:1019100000D39C46002367468C4611005A46AB46CE
:10192000069882460BE004208446F0E7D0184C1C51
:101930005044457809A845540133DBB2E1B2BB42BB
:10194000F4D35D4661469346B4E709A970234B7012
:101950008878CC780A794B796040424053408B714B
:101960001B2304AA9446634407223800FFF762FD54
:10197000041E00D06AE7132304AA9446634400229D
:101980001A701223634403221A701A236344984680
:101990000923994651E01C213800FFF7CAFC830651
:1019A00000D553E71F231A000240034200D1202232
:1019B000AA4200DCBDE055B2511ECB175B0FC9181F
:1019C00007200140C91ACBB2581E8341D2089B1888
:1019D0000133DBB2FF2211400120884009A9CA5C13
:1019E0000243CA5401E001239A465346002B4AD1D0
:1019F0001F2DAADCEB17580F2A1807210A40121ACC
:101A0000D2B2132004ACA4466044027019404919B4
:101A1000C910C9B20231C9B20B01DBB2D31809A88F
:101A20004370531E9A415218D3B299468046884457
:101A30000923591A122363441970132404AB9C46DA
:101A4000644426783201D2B29219D2B21A213800F7
:101A5000FFF714FC0023039302960194123304AAA7
:101A600094466344009343464A4609A93800FFF769
:101A70007CFE040002288ED0002800D0E6E61F2D50
:101A8000B1DC2025B1E74646B94609AB9B78882BE7
:101A900008D00221882B07D0042400235D46069A33
:101AA00094460CE00321F5E70324F6E7481CEA1806
:101AB00009AF795C624451700133DBB2C1B2A34219
:101AC000F4D3122304AA944663441B78032B32D127
:101AD000103363441B78002B2FD11633634401224B
:101AE00031004846FFF7A6FC041E00D0AEE609AB65
:101AF0009A7873789A4222D109ABDA78B3789A420D
:101B00001FD133785A0704D5079B0133DBB2079303
:101B100090E6069AD372534604938BE6079A5300D5
:101B2000944663440133069A137000248EE606241B
:101B30008CE605248AE6012488E6012486E607244B
:101B400084E6072482E630B587B0050050236A4654
:101B500013750023537516336B44022205A9FFF752
:101B600069FC041E02D0200007B030BD002303939F
:101B7000029301930093042205A92800FFF7F5FDC5
:101B80000328F0D0002801D00400ECE70124EAE7A4
:101B900070B58AB00E9E07AC21706270002205E01D
:101BA000911C9D5C07AC65540132D2B2052AF7D96D
:101BB000002307E01A000832F1184C7807A98C546A
:101BC0000133DBB2032BF5D9002305930493039370
:101BD000029301930C33009307AB10220E21FFF701
:101BE000F3FC0AB070BD10B508221021FFF714FCF9
:101BF00010BD70B584B0060014001D00002A19D075
:101C00001B78112B18D9302313705170931C0222AA
:101C10002100FFF70FFC00280FD1012303930023BD
:101C20000293019300952300042221003000FFF766
:101C30009CFD02E0042000E0042004B070BD000020
:101C4000072806D815D880000D4B1B589F460D4815
:101C500002E0FF2811D10C4870470C48FCE70C4803
:101C6000FAE70C48F8E70C48F6E70C48F4E70C48AC
:101C7000F2E70C48F0E70C48EEE70A48ECE7C0460C
:101C8000FC980010CC980010D898001020980010F4
:101C900034980010509800106C9800109C98001018
:101CA000B0980010F8970010089800107F23184093
:101CB000402813D880000B4B1B589F46FF2000E0A4
:101CC000042070470520FCE70620FAE70720F8E724
:101CD0000820F6E70120F4E70220F2E70020F0E711
:101CE0000320EEE71C99001008280BD8002819D013
:101CF000082805D880000E4B1B589F460D4804E06D
:101D00000D4802E0FF2811D10C4870470C48FCE751
:101D10000C48FAE70C48F8E70C48F6E70C48F4E7FB
:101D20000C48F2E70448F0E70B48EEE70248ECE71E
:101D3000109B0010C89A0010209A0010EC9A001016
:101D4000589A0010709A00107C9A0010889A00101F
:101D5000AC9A0010B89A0010309A001070B582B09A
:101D60000600214804F0D2FB00240DE0202004F0FE
:101D700069FB75196A781D4901A803F0D9FD01A80E
:101D800004F0C4FB0134E4B23378A34208D925003F
:101D900033195B780F2BE9D8154804F0B7FBE8E757
:101DA000144804F083FB144804F0B0FBF37A0F2BC3
:101DB00015D9F27A0D4901A803F0BAFD01A804F083
:101DC000A5FBF07AFFF772FF04000C4804F09EFBBD
:101DD0002000FFF789FF04F099FB02B070BD3020AE
:101DE00004F030FBE5E7C046D89B00104C9B001088
:101DF00068B1001098910010E49B0010F09B001057
:101E0000F0B5DE4657464E464546E0B591B00390E4
:101E1000069107929946002305934B461F2B0BD83A
:101E20009F00FBB2984604230493049B5D1E01238C
:101E300042460292984604E1272B25D84F46203F80
:101E40003F01FFB2803FFBB2984610230493ECE7BA
:101E5000C54804F05BFB06E1C44804F057FB0DE104
:101E6000C34804F053FB12E1202004F0EBFA0EE12A
:101E70008246C04804F04AFB5046FFF7E1FE04F0FA
:101E800045FB0A2004F0DEFA11B0F0BCBB46B246B6
:101E9000A946A046F0BD202004F0D4FA09AB9A5D13
:101EA000B5490FA803F044FD0FA804F02FFB03234E
:101EB0003B40032B0CD00137FFB20F2F0CD83E0054
:101EC00009ABDB5D0F2BE6D8AC4804F01FFBE5E760
:101ED000202004F0B7FAEEE74346002B5DD009ABB3
:101EE000DE7931091A7A0F2007001740B846120927
:101EF0009B7907001F401B0930400F26BE43B142AB
:101F000000D1F5E001230126334005938800042326
:101F10009A4603409C4643465800022318406746B1
:101F200038433700174007430EA807704F00534649
:101F30001F40BC464746023B1F40BB4667465B46C8
:101F40001F43BC4653101F003740BB4667465B46E5
:101F50001F43477057460F40BB4643465B101F0068
:101F600002231F40BC465F4663461F43BC46931096
:101F70001F003740BB4667465B461F4387704910CA
:101F80005346194043469B1002273B401943D21049
:101F900016403143C17000239846049B042B00D1A6
:101FA000B8E00521280003F01BFDC6B2032E00D1C6
:101FB000ACE0681C052103F013FD864200D1A7E0C8
:101FC0000123002B30D06E4804F0A0FA0EAB9B5DCD
:101FD0009B469A0801252A406A4B9A4619000FA889
:101FE00003F0A6FC0FA804F091FA202004F02AFACE
:101FF0005B465A082A4051460FA803F099FC0FA8E7
:1020000004F084FA202004F01DFA5A462A40514672
:102010000FA803F08DFC0FA804F078FA5A4804F0DA
:1020200075FA059B002B77D1032E05D00EAB9B5D77
:10203000012B75D0062B73D0544804F037FA013CBD
:1020400065B2002D00DA1FE7ECB2029BE618F6B28B
:102050004346002B00D1FFE64B46092B00D9F7E69B
:10206000434804F053FA4A4646490FA803F060FC7F
:102070000FA804F04BFA3E4804F048FA092E00D8A5
:10208000EEE6632E00D9EFE6374804F03FFA32005F
:102090003C490FA803F04CFC0FA804F037FA324873
:1020A00004F034FA4346002B0AD0069B0093079BAA
:1020B000029A60210398FFF76BFD002800D0D7E655
:1020C0001F2306AA9446634412221A7009AA3100FB
:1020D0000398FFF78EFD0600071E00D1EDE62C48A1
:1020E00004F014FA3000FFF7ABFD04F00FFAA6E796
:1020F0000F269E43B04501D0012304E70F238343FD
:102100009A4201D00123FEE60023FCE6012358E7B2
:10211000002356E7260056E71E4804F0F7F983E748
:1021200009ADEE783606AA78120416436A781202D0
:1021300016432A781643184804F0E8F9FF22324083
:102140000D4E31000FA803F0F3FB0FA804F0DEF9E9
:10215000124804F0DBF92A7B31000FA803F0E8FBFA
:102160000FA804F0D3F967E7009C0010089C00104A
:102170000C9C0010109C00104C9B001068B10010CB
:10218000449C0010049C0010489C00109891001082
:102190002C9C00104C9C0010749C0010809C001023
:1021A000F8B505000E001F00042A09D0052A09D041
:1021B000032A14D105240D4804F078F9013C0CE001
:1021C0001024F8E72824F6E7E4B223003A003100AF
:1021D0002800FFF715FE013C64B2002CF4DA280059
:1021E000FFF7B1FC2800FFF7FEFCF8BD889C00104B
:1021F000F0B5CE4600B588B08146304804F056F9B7
:10220000002548E02E4804F081F90198FFF718FDF9
:1022100004F07CF908B080BCB946F0BD202004F081
:1022200011F929E0202004F00DF902AB1A5D2549CF
:1022300007A803F07DFB07A804F068F90136F6B2A1
:10224000032E0BD8BC00E4B2A419E4B202AB1B5DB0
:102250000F2BE7D81C4804F059F9E6E71B4804F0B7
:1022600025F90137FFB2032F13D8EC19E4B2092C7A
:10227000D4D8174804F04AF92200164907A803F0F9
:1022800057FB07A804F042F9114804F03FF9019EFA
:10229000D6E70435EDB20F2DBCD8132302AA94461D
:1022A000634412221A70624629004846FFF7A1FCD7
:1022B00001900028A6D1019FD5E7C046D89C001008
:1022C0002C9C00104C9B001068B1001098910010DD
:1022D000009C0010049C001030B583B005000C0079
:1022E0000800FFF73BFDE07AFFF7E0FC020006285C
:1022F00028D012D8022805D9C31EDBB2022B04D87D
:10230000002317E042B2002A0BD1104804F0CEF8A7
:102310002800FFF718FC03B030BD073AD2B2012AFB
:10232000F3D80B4804F0C2F8EFE7FF216846C15428
:102330000133DBB2052BF8D96B4621002800FFF7EB
:102340002FFFE2E72800FFF753FFDEE79891001028
:10235000EC9C001000B583B06B46DA1C02231370AE
:1023600001A9FFF74BFA002805D0022801D0002070
:1023700002E0013800E0012003B000BD10B50022EA
:102380000100FFF742FA43425841C0B210BD0000BD
:10239000F8B5CE46474680B580460F00002303E0DF
:1023A000D55C1E4CE55401330F2BF9DD0025032DC0
:1023B00022DCAC0043461859194B9946E050194E9F
:1023C0003B59A35100F0DCF9A05900F0D9F94B4674
:1023D000E2580123190091400A00D02109068A62BF
:1023E000A05983404B624B610F490B68D3180B60B7
:1023F0000E4BE2500135DAE701F0EEFB002906DB77
:102400000B4B18605960C0BCB946B046F8BD094BCB
:10241000094A3F21094802F045F9C0461813002037
:10242000F412002028130020AC140020C415002052
:1024300000100020E49000102C9D0010009100106E
:1024400010B501F0C9FB02000B1E09DB0B4908683F
:102450004968121A8B410120002B07DDC0B210BD64
:10246000074B084A3F21084802F01CF9002B02D113
:10247000064B9A42F2D80020F0E7C0460010002038
:10248000E49000102C9D00100091001050C300003B
:10249000F0B5C64600B5D0231B065A68334B1B68FF
:1024A000100018401A425DD0002308E09900304A1D
:1024B000895801228A40D02109068A610133032B01
:1024C000F4DD0024032C1BDC294FA30098460125D2
:1024D0001A002B00D2599340D02636067361254846
:1024E000002101F099FB72684346DB599D40B561BC
:1024F0001E4B1B68100018401A4201D10134E1E75D
:10250000002308E099001A4A895801228A40D02104
:1025100009064A610133032BF4DD174B1B68834224
:102520000DD0154B5B6883420DD0134B9B688342E3
:102530000ED0114BDB6883420FD0002013E0A400C3
:102540000E4B185D0FE0A40001340C4B185D0AE03F
:10255000A4000234094B185D05E0A4000334074BC6
:10256000185D00E0002080BCB846F0BDAC1400202F
:102570002813002010270000C41500201813002085
:10258000F0B5C64600B580460F00002408E0A6005E
:10259000064D70593B004246082100F095F8013481
:1025A000032CF4DD80BCB846F0BDC046F412002018
:1025B00010B58300084A944663441C684022624078
:1025C000C02414408022520113431C60C000034BFE
:1025D0009C466044416010BD04C001400040014081
:1025E00080000B4B9C46604400290DD00823002A34
:1025F0000CD004221343026853400C221340802263
:1026000052011043036070470023F0E70022F1E716
:1026100004C0014070B50400D0231B061D68AA0049
:102620000C4BD358002B0AD0002803D0AD00094B27
:10263000EC5070BD08490D2000F020FBF6E70028A3
:10264000F7D0AD00034BE850002203490D2000F005
:10265000FBF9EEE7B0150020E92600100723034040
:102660009B00C00899403C308000014BC15070472E
:1026700000400140F8B507000C0016001D00FFF7F0
:10268000EDFFFB089B00ED180720384080008440D8
:10269000002E04D080239B011D432C60F8BDC02375
:1026A0009B011D432C60F9E710B5D0231B061B6866
:1026B000002B03D0024BFFF7DDFF10BD014BFAE703
:1026C000304101400041014070B514001D00FFF78A
:1026D000EBFF2800FFF79EFF002C00D170BD012109
:1026E0000D2000F05DF9F9E7F0B5D6464F464646B5
:1026F000C0B5D0231B061F68BA001D4BD35898469F
:10270000002F03D01B4B9946002623E01A4B994615
:10271000FAE724090135002C1BD033000833AB4203
:1027200017D90F231A00224092462342F1D0BB0052
:10273000124A9A580123AB401342EAD1514628006D
:10274000FFF78CFF4346002BE3D051462800C047DB
:10275000DFE708361D2E06D8F30808339B004A46EB
:102760009C583500D7E7E0BCBA46B146A846F0BD54
:10277000B01500203041014000410140C81A00203E
:1027800010B501238340D022120693629361052184
:10279000FFF70EFF10BD0000034B1B68022018401E
:1027A000431E9841C0B2704700C00640EFF310804E
:1027B00072B6034B1B68002BFBD0BFF35F8F7047D3
:1027C0002C0100D0BFF35F8F024B00221A6080F310
:1027D000108870472C0100D0F8B506000C001500D9
:1027E000FFF7E4FFE308F718F15C0722224001231A
:1027F00093400B4205D1DBB20B433B70FFF7E2FF86
:10280000F8BD2100280001F0E7FFF0B583B0060015
:10281000019114001F00FFF7C9FF00E00134BC4222
:102820000CD8E308F518F35C0721214001228A4007
:102830001A42F3D1D2B21A432A7001E00124644251
:10284000FFF7C0FF002C02DB200003B0F0BD019BAE
:10285000002BF9D0089801F0BFFF0000002307E02B
:10286000054A9A189200BFF35F8F0021116001336F
:102870001F2BF5D97047C04640000034054A107838
:10288000431CDBB21370172B02D9130010221A70ED
:102890007047C046F10D002000B583B00100044B25
:1028A00000931F2318220348FFF7AFFF03B000BDBA
:1028B000449D0010C0150020074B9B68103080001D
:1028C0001950BFF35F8FBFF35F8F044B0021196076
:1028D00082F310887047C04600ED00E0240100D06C
:1028E00010B5091A081F0A4B9C466144094A9142D7
:1028F00008D8C30706D440104005400D064B1843C6
:1029000080B210BD054B064AA321064801F0CAFE5D
:10291000FC070000FE0F000000E0FFFF609D0010BC
:10292000EC9F0010909D001010B5091A04394C0856
:10293000090B08D14905490D064A11430180064B90
:102940002343438010BD054B054AAB21054801F0E8
:10295000A9FEC04600F0FFFF00F8FFFFEC9D00104D
:10296000C09F0010909D001001238340034A10680F
:102970001840431E9841C0B27047C04600E100E0D5
:10298000002904D0034B1860034B18607047034BB9
:102990001860FBE780E200E000E100E080E100E099
:1029A00010B5012383401800FFF7EAFF10BD0000B7
:1029B00001238340014A13607047C04600E200E0F3
:1029C000024B9B6810308000C058704700ED00E05B
:1029D00010B5FFF7F5FF002805D0054BC01A2F28CA
:1029E00003D8012010BD0020FCE70020FAE7C04614
:1029F000F40D002070B504000D00EFF3108672B6E0
:102A00000C4B1B68002BFBD0BFF35F8F2000FFF740
:102A1000D7FF094B984201D0A84205D132002900C6
:102A20002000FFF749FF70BD044B054A8621054889
:102A300001F038FE240100D0CD010010FC9D0010F3
:102A400020A00010909D0010F0B5DE4657464E467F
:102A50004546E0B589B0814601911500EFF3108A33
:102A600072B6744B1B68002BFBD0BFF35F8F724BA9
:102A70000027DF57002F40DB7C00E419A4006F48DB
:102A800024180622A2566C4B1A706D4B9A684B465E
:102A900010339B00D35898461E001B1A2F2B38D991
:102AA000684B98452FD105AE674B33807B009B4622
:102AB000D8198000614B9846404402306349FFF7C3
:102AC0000FFF7080624BB380FF23B371F571019BE0
:102AD00007935F44BF0047440ECE0EC701231C433B
:102AE000A046524641464846FFF7E6FE09B0F0BC14
:102AF000BB46B246A946A046F0BD564B564AD72122
:102B0000564801F0CFFD564B534ADE21534801F0A1
:102B1000C9FDC04340440C2102F08AFF002912D1B4
:102B200001239E43B34633000026DA79AA4211D925
:102B30000621595600290CDB4A00521892001E004B
:102B40003E4B9B18F1E7474B434AEA21434801F0CB
:102B5000A9FD1E00002E3AD005AB434A1A80813AE7
:102B60005A800623F3560293002B17DA3F4805AB31
:102B70009B469880029A9A71DD71019A0792301DE6
:102B80002100FFF7ADFEB080B7717B00DB199B0021
:102B90002A4FFF185B4607CB07C7A2E77800C0198A
:102BA0008000264BC0180430321DB388D90A1C2976
:102BB00007D15B055915023149005118FFF790FE06
:102BC000D5E72B4B2B4AB121244801F06BFD05AE14
:102BD0001D4B33807B000293D8198000174A904622
:102BE000020042440392901C1849FFF779FE70805E
:102BF000039A101D5946FFF773FEB0801E4B5A46CC
:102C00004146521A524153431B0DB371F571019A5B
:102C10000792029B9C466744BF0047440ECE0EC7F6
:102C2000114B5A461380813B538001231C43A0461D
:102C300057E7C046240100D0311D0020F40D0020CC
:102C400000ED00E0CD01001000A1FFFF240E0020E8
:102C500001BDFFFF349E001008A00010909D0010E1
:102C60005C9E0010849E00100148000001BD000021
:102C7000F89E0010F89F0010AAAA0000F0B5CE46FA
:102C8000474680B583B006000D00EFF3108872B69A
:102C9000564B1B68002BFBD0BFF35F8F544B9A68D9
:102CA00034001034A300D758524B9F4207D0AF4294
:102CB00000D198E00197504BFB1A2F2B09D94246BF
:102CC00039003000FFF7F8FD03B0C0BCB946B0468C
:102CD000F0BD3000FFF748FE814600213000FFF7CD
:102CE0005FFEBFF35F8FEFF30581002901D08C42B7
:102CF00011D10123019C9C430022A368AB4212D056
:102D00000622A256002A0DDB53009B189B002200CE
:102D1000394CE418F1E73621384B394AFF3139484C
:102D200001F0C0FC2200AB4256D106256557002DAC
:102D300038DB6B005B199A002F4B9B189A68A260D6
:102D4000DA79E27106229A56A2719B795BB2002B66
:102D50000FDA2D48A0806B005B199B00264AD31820
:102D60002A4A11789971157049463000FFF718FE0C
:102D7000A5E7201D6B005B199B001F4A9B181A1DBD
:102D80009B88D90A1C2907D15B055B1502335900C2
:102D90005118FFF7A5FDDDE71D4B1E4AB12119486B
:102DA00001F080FC002912D1002A0ED0FF2393717C
:102DB000194B9380154A1378A371184B0E49641A66
:102DC000644163431B0D1370CEE70A4FF2E7201DE9
:102DD0001349FFF7A9FDC7E76A21124B084AFF31E3
:102DE000084801F05FFC034F69E7C046240100D0AA
:102DF00000ED00E0CD010010F40D0020109F001048
:102E0000D89F0010909D001001BD0000311D0020D2
:102E1000F89E0010F89F001001BDFFFFAAAA000055
:102E20002E0E0020449F001070B5012101432E4B4F
:102E3000CB1A2F2B28D8EFF30583002B2BD0EFF3E1
:102E4000108C72B6294A1268002AFBD0BFF35F8F3C
:102E5000274A0400244D641B64416243120D54B29E
:102E6000244A92689B00D2588A421BD00022032A2F
:102E700032D853009B189B001B49CB189B795BB23F
:102E8000A3421FD00132F2E7C7211B4B1B4A490066
:102E90001B4801F007FC92211A4B184AFF311848D1
:102EA00001F000FC134A92681749D150174B1A7869
:102EB00082711C70BFF35F8F0C4B00221A608CF381
:102EC000108870BD0D005300991889006918FF26FD
:102ED0008E710F4A8A80E9E7D1210E4B074A4900DB
:102EE000074801F0DFFBC046F40D0020240100D0AC
:102EF000AAAA000000ED00E04C9F0010A49F001063
:102F0000909D0010749F0010CD010010311D002015
:102F100001BDFFFF809F00100022044B02E0044926
:102F200002C30132072AFAD97047C04600E400E024
:102F30008080808000B583B00100064B009305239C
:102F400000220548FFF761FC002801DB1F23181A47
:102F500003B000BD889F0010391D0020024B9C4625
:102F600061448900016070474000003410B50400DE
:102F7000FFF784FC01002000FFF7F0FFFF2323711F
:102F8000BFF35F8F10BD10B50400FFF777FC0100A1
:102F90002000FFF7E3FFFF23237100236371BFF3DA
:102FA0005F8F10BD034B9C46614489000160BFF3F5
:102FB0005F8F70474000003410B504000120FFF718
:102FC0006BFC01002000FFF7EDFF10BD70B50500A0
:102FD0000C00080000F000FF0949200000F040FE4E
:102FE000FFF74CFC074B9C466044800068602C75E2
:102FF000D0231B061B786B75A400034BE55070BDF6
:103000001133001040000034B81A00200A4B1A682F
:10301000EFF3108172B61368002BFCD0BFF35F8F03
:10302000054B1B68BFF35F8F00221A6081F3108885
:1030300040BF002000217047DC1C002010B5002993
:1030400022D003681B7B99421ED8174B9C466144D3
:10305000090183689C4661440C684968002A19D0BC
:1030600003681B7B9A4215D883680F4884466244E4
:1030700012019A1810685368020001208B4201D88F
:103080000ED00020C0B210BD084B094A3C210948AF
:1030900001F008FB054B064A3C21064801F002FB03
:1030A000A242EFD8EDE7C046FFFFFF0F88A1001056
:1030B00008A4001034A1001010B500291ED0037B15
:1030C00099421BD84B005B18033B0468A446634439
:1030D000002919D0002A1DD0914221D0002A25D0E4
:1030E000047BA24222D804685000801803382018BC
:1030F0008170197800291FD11A7010BD104B114A28
:103100006821114801F0CEFA104B114A6F310E4878
:1031100001F0C8FA0F4B0E4A70210B4801F0C2FAB9
:103120000D4B0B4A7121084801F0BCFA044B054ACB
:103130006821054801F0B6FA41701A70DDE7C04613
:10314000ACA1001074A40010C8A1001030A200109F
:1031500050A400103CA2001048A2001070B5060058
:103160000D001400002914D0002A14D08068736860
:103170009847002806D0220029003000FFF79CFF66
:10318000280007E02A0021003000FFF795FF20000B
:1031900000E0100070BD0800FCE70000F0B583B04F
:1031A0000500009201930AAB1C780BAB1F78002C32
:1031B00026D003685A7B944207D10123002B19D1F2
:1031C000002C3BD1200003B0F0BD002C0CD01A7BAA
:1031D000944209D81A6863001B19033BD3189B78E3
:1031E000002BEBD00123E9E73E4B3F4A68213F48E3
:1031F00001F058FA3E4B3F4A67213F4801F052FA2E
:1032000003689C7B002CDBD012D01A7B94420FD831
:1032100062001219033A19688C4662445178997316
:10322000002900D1D9730023937053701370C7E73E
:103230002C4B2D4A68212D4801F034FA002C3AD04D
:103240002B681B7B9C4236D82C4BE3181B01AA68C9
:1032500094466344009A1A60019A5A60089A9A60E8
:10326000099ADA602E68002C2BD030D0337B9C4238
:103270002DD863001B19033B326894466344002237
:103280009A705A701A70717B22003000FFF766FF47
:103290007073844200D095E7287D009A019B00F06E
:1032A00027FD061E01D0002F17D00C9B002B00D14C
:1032B00088E71E7086E7124B124A3C210E4801F047
:1032C000F1F9114B114AA521084801F0EBF9054B22
:1032D000054A6821054801F0E5F92868210000F059
:1032E0003FFFE2E7ACA1001074A40010C8A10010D9
:1032F00060A2001080A4001034A10010FFFFFF0F97
:1033000088A1001008A4001030A1001064A40010CF
:10331000F0B5DE4657464E464546E0B58BB00990BF
:10332000002308938200B54BD658370052E0B44BC7
:10333000B44A3F21B44801F0B5F9B44BB44A3C213A
:10334000B44801F0AFF9002901D1002869D100216A
:10335000404600F0FBFEA04219D12A686B68069235
:103360000793AB689846EB689A464346002B14D007
:10337000002C18D03B681B7B9C4214D8631EFA6853
:10338000D35C08931B0218433861002015E0A24B60
:10339000A24A8E219F4801F085F9A14B9F4A9221B4
:1033A0009C4801F07FF9994B9E4A4121994801F0D0
:1033B00079F900239A46984600207B68BFF35F8F17
:1033C00000221A6086F310884346002B32D1002871
:1033D00000D10CE100F000FC02000B1EA7DB002076
:1033E0000021069007917868EFF3108672B60168A5
:1033F0000029FCD0BFF35F8F396888464C7B002CD6
:10340000D7D09AD0097B8C4297D8874965182D016F
:10341000B9688C46654428686968801A9941002912
:1034200091DD2A686B68099800F062FC00239A46D7
:103430009846C2E7089B1B02234399465146180051
:10344000C04705000E007A68EFF3108B72B6136860
:1034500059424B41D9B2002BF9D1BFF35F8F002EF7
:103460001EDB002E46DD3B69002B47D04B456DD15E
:1034700000F0B2FB02000B1E6EDB52197341002BF1
:1034800070DB002B72DB0021049101310391029467
:1034900051460191414600913800FFF77FFE4CE014
:1034A0003B69002BDDD04B4514D1069A079B521B7C
:1034B000B341002B14DB002B16DB002104910131FA
:1034C0000391029451460191414600913800FFF763
:1034D00065FE32E0554B514AA1214E4801F0E2F819
:1034E00001225242524BE6E7454B464A3F214648AD
:1034F00001F0D8F8002E01D1002DB4D13B68002C8A
:1035000050D05A7B944237D1012100294AD1DA7B2D
:10351000002A4DD19A7B002A03D1DA7B002A5AD1A6
:103520009C73DC73002C5CD03B681B7B9C4258D89E
:10353000FA68013C135D0133135500233B617A683F
:10354000BFF35F8F13608BF3108843E7374B334A29
:10355000A421304801F0A6F8294B2A4A3F212A48E5
:1035600001F0A0F801225242314B8AE7244B254A50
:103570003F21254801F096F8002C0DD01A7B94428B
:103580000AD862001219033A186884466244927895
:10359000002ABAD00121B8E7264B274A68212748DC
:1035A00001F080F8264B274AF621244801F07AF8EA
:1035B000002A0AD0197B8A4207D851008A18033A98
:1035C00019688C4662445470A4E71A4B1A4A682161
:1035D0001A4801F067F81C4B1A4AFB21174801F002
:1035E00061F80A4B0F4A41210A4801F05BF80BB021
:1035F000F0BCBB46B246A946A046F0BDB81A0020B2
:10360000E4900010D4A300100091001088A10010D5
:1036100008A4001034A1001088A20010ECA3001030
:10362000A0A200102CA40010FFFFFF0FACA20010FE
:10363000FFFFFF7FACA1001074A40010C8A1001010
:10364000E8A2001040A400100CA3001010B50C4B11
:103650005B68002B04D00A210A48FFF77FFC10BDED
:10366000074C2300084A1021206800F07FFC03204B
:1036700000F0A6FA03212000FFF7A8FCEBE7C04604
:103680003C0E0020DC1C00203D30001010B5064B25
:103690005B68002B01D0044810BD044B044A5E2136
:1036A000044800F0FFFFC0463C0E002020A300109D
:1036B00014A4001034A10010F0B5DE4657464E4663
:1036C0004546E0B58BB0804616001F00149B9A4615
:1036D000159B994616AB1B789B461F2302AA94465E
:1036E000634400221A702BE0002809D04246126879
:1036F000127B904204D8421E4146C9688A5C41E070
:10370000404B414A4121414800F0CCFF07984CE032
:10371000361BAF41002F07DB002F11DA3C4B3D4A2F
:103720003F213D4800F0BEFF012676423B4FF3E7C4
:10373000374B384A3F21384800F0B4FF002F4FDBA9
:1037400043465A68EFF3108472B6136859424B41EE
:10375000D9B20791002BF8D1BFF35F8F1F3302AAB4
:103760009446634404930023039302934B460193CE
:103770005346009332003B004046FFF70FFD031E07
:10378000B2D1020041464968BFF35F8F00250D604A
:1037900084F31088002B29D01F2302A98C46634490
:1037A0001B78002BB2D112021043002B20D05B46B5
:1037B000002B1DD04946D04704000D0003000B43E9
:1037C0001DD00029A4DB00F007FA06000F1EAFDBB6
:1037D00036196F41002FB1DA012676420F4FADE75F
:1037E0000B4B0C4A3F210C4800F05CFF012040428B
:1037F0000BB0F0BCBB46B246A946A046F0BD079848
:10380000F6E7C04688A100102CA4001034A10010D7
:10381000E4900010D4A3001000910010FFFFFF7F80
:10382000F8B50400002900D162E04268EFF310858A
:1038300072B6136858424341D8B2002BF9D1BFF396
:103840005F8FCBB22268567BB3421BD10120002888
:1038500048D0206988422BD0090AC9B2002B2ED04B
:103860002068007B83422AD8581EE668305C884274
:103870002BD000206368BFF35F8F00221A6085F3AE
:103880001088F8BD002B0DD0167BB3420AD85E001D
:10389000F618033E1768BC466644B678002ED6D0AC
:1038A0000120D4E7134B144A6821144800F0FAFEB3
:1038B0002C21134B134AFF31134800F0F3FE134B36
:1038C000134A4121104800F0EDFE1900100000F0ED
:1038D00047FC0028CED199210E4B0A4A49000A48DC
:1038E00000F0E0FE23698B42C4D100232361C1E7CD
:1038F0000020C6E7ACA1001074A40010C8A10010FD
:1039000044A30010BCA3001034A1001088A1001033
:103910002CA4001068A30010407D7047F0B587B05C
:1039200006000F00EFF30583002B1FD1062464422D
:10393000E517A4197D418D4202D803D1844201D9F3
:1039400000240025002D14DB0494059500F044F9B3
:1039500002000B1E13DBA41A9D41002D17DC14D0AE
:103960003000390000F044F907B0F0BD234800F002
:1039700033FF234B234A3F21234800F093FE204B83
:10398000204A3F21204800F08DFE002CE8D0FFF7B0
:103990007DFE0023029301931C4B0093049A059B28
:1039A000FFF78AFE002818DADAE7002300E0002398
:1039B000002BD5D1164B1A68EFF3108172B613683D
:1039C000002BFCD0BFF35F8F114B1B68BFF35F8FE1
:1039D00000221A6081F3108820BF0499059A0D4BCC
:1039E0005B6A9A42E3D80B48806A884203D29A42C3
:1039F000DBD00123DCE70123DAE7C0466CA300102B
:103A0000E4900010D4A30010009100100D300010BD
:103A1000DC1C00200040054070B504000D0000F0E3
:103A2000DBF802000B1E0ADB200029008018594138
:103A300000290ADB00290CDBFFF770FF70BD084B83
:103A4000084A3F21084800F02DFE01204042074966
:103A5000F0E7034B034A3F21034800F023FEC04632
:103A6000E4900010D4A3001000910010FFFFFF7F2E
:103A700010B5FA2292000023002102F06FFBFFF73D
:103A8000CBFF10BD70B584B005000C00EFF30583CB
:103A9000002B1ED1FFF7FAFD002302930193224B66
:103AA00000932A002300FFF707FE061E23DD20BF38
:103AB000FFF7ECFD3100FFF7B3FE1C4B5B6A9C4245
:103AC0002DD81A4A926AAA422CD29C4225D00120B3
:103AD00026E0164B5B6A994209D8144A926A8242E0
:103AE00007D2994201D001201AE0002018E00020FE
:103AF00016E0012014E00D4B5B6A9C4209D80B4A8A
:103B0000926AAA4207D29C4201D0012008E000201C
:103B100006E0002004E0012002E0002000E0002098
:103B200004B070BD0120FBE70D30001000400540DF
:103B300070B5EFF305801038EFF3108C72B61A4BA6
:103B40001B68002BFBD0BFF35F8F01221300834063
:103B500016494B6316490B60164909780C00C4409E
:103B6000224214D0114A546A8200134D5259944291
:103B700006D38200114C125999430E4B197007E07D
:103B80000A4A031D9B0099589950002200E0002228
:103B9000BFF35F8F044B002119608CF31088002A5B
:103BA00000D0904770BDC046280100D000400540BD
:103BB0003C700540381D0020F81C00209C1400209B
:103BC00010B50100024A0348FEF706FE10BDC046CC
:103BD00098A40010301D0020044B5B6A034A906AD1
:103BE0001900536A9942F9D17047C0460040054018
:103BF000084B5B6A01E0074B5B6A8B42FBD301E039
:103C0000044B5B6A8B4203D1024B9B6A8342F7D31E
:103C10007047C0460040054070B504000D00FFF736
:103C2000DBFF02000B0020002900801859418B4265
:103C300002D804D1824202D901204042C117002992
:103C400002DBFFF7D5FF70BD024B034A3F2103485B
:103C500000F028FDE49000105CA500100091001019
:103C600070B504000D00EFF3108672B61B4B1B6895
:103C7000002BFBD0BFF35F8F002D1CD02000FEF780
:103C80009FFE174B83420BD019002000FEF7B2FEB7
:103C900001212000FEF784FE0123A340114A136096
:103CA000A400114BE550BFF35F8F0C4B00221A604C
:103CB00086F3108870BDA2000B4B0021D150012269
:103CC000A2400A490B7893430B7005492000FEF788
:103CD000D5FF00212000FEF763FEE4E7280100D0B5
:103CE000313B0010386005409C140020381D002036
:103CF000F0B5DE4600B584B00400150001921E0048
:103D00000293FFF769FF03958E4202D84ED1854298
:103D10004CD9EFF3108B72B6274B1B68002BFBD0EE
:103D2000BFF35F8F254A17780125A540EBB23B43CF
:103D30001370234B5D63221D92000199D150A200A4
:103D40002049029850501B6A2B4212D11C4B1B6C0D
:103D50002B4208D00020BFF35F8F174B00221A6060
:103D60008BF3108823E0184B184AC521184800F03F
:103D700099FCFFF731FF8E4214D802D1039B834296
:103D800010D80E4B1B78BB420ED00D4B1D625D63ED
:103D90001F2004400123A3400E4A1360074B1F70ED
:103DA0001E38D8E70020D6E70120D4E7012004B070
:103DB00080BCBB46F0BDC046280100D0381D0020A5
:103DC00000400540F81C0020BCA4001040A50010D5
:103DD000E0A4001080E200E0EFF3108C72B60B4B11
:103DE0001B68002BFBD0BFF35F8F01238340084A81
:103DF000136208490A789A430A70BFF35F8F034B36
:103E000000221A608CF310887047C046280100D049
:103E100000400540381D002010B500291ED0037B4E
:103E200099421BD84B005B18033B0468A4466344CB
:103E3000002919D0002A1DD0914221D0002A25D076
:103E4000047BA24222D8046850008018033820184E
:103E50008170197800291FD11A7010BD104B114ABA
:103E60006821114800F01EFC104B114A6F310E48BA
:103E700000F018FC0F4B0E4A70210B4800F012FCAA
:103E80000D4B0B4A7121084800F00CFC044B054A0D
:103E90006821054800F006FC41701A70DDE7C04655
:103EA000ACA100107CA60010C8A1001030A2001028
:103EB00068A600103CA2001048A2001070B50600D1
:103EC0000D001400002914D0002A14D080687368F3
:103ED0009847002806D0220029003000FFF79CFFF9
:103EE000280007E02A0021003000FFF795FF20009E
:103EF00000E0100070BD0800FCE7000010B50023D2
:103F0000437301338373037BC3730123027B9A42A0
:103F100014D9002B0CD0027B934209D85A00D21836
:103F2000033A01688C4662440133DBB25370EDE71B
:103F30000B4B0C4A68210C4800F0B4FB002A09D056
:103F4000924207D8016853009A18033A8A1800234E
:103F5000537010BD024B034A6821034800F0A2FBD6
:103F6000ACA100107CA60010C8A1001010B5017310
:103F700042608360FFF7C2FF10BD000070B504000F
:103F8000081E00D170BD002934D0237B994231D85E
:103F90004B005B18033B2268944663445A78002A1E
:103FA000F0D02DD0237B9A422AD853009B18033B94
:103FB00021688C4663445D7800215970002825D023
:103FC000237B984222D843001B18033B21688C4670
:103FD00063440021597001002000FFF76FFF0600C5
:103FE00029002000FFF7CAFF020031002000FFF780
:103FF00065FFC7E7084B094A6821094800F052FBF2
:10400000054B064A6821064800F04CFB024B034A68
:104010006821034800F046FBACA100107CA600100C
:10402000C8A1001070B505000C00160000292FD0A3
:1040300034D0037B994231D84B005B18033B0268B4
:10404000944663445A78002A2ED19A78002A31D1B6
:104050001978FFF793FF0300002E0AD0EA7B002AAD
:104060002ED1AA7B002A03D1EA7B002A3BD1AC7374
:10407000EC73002B3DD1002C4FD02B7B9C424CD8B5
:104080002B6861000C19033C1C190023637070BD80
:10409000254B264A3821264800F004FB254B264AAA
:1040A0006821264800F0FEFA254B204A3A21204894
:1040B00000F0F8FA234B1D4A3B211D4800F0F2FAAC
:1040C000002A0AD0297B8A4207D851008A18033A6D
:1040D00029688C4662445470C3E7164B164A68211F
:1040E000164800F0DFFA184B104A4221104800F041
:1040F000D9FA002B0BD02A7B934208D843001B1817
:10410000033B2A689446634400229A70B3E7094B44
:10411000094A6821094800F0C5FA064B064A682199
:10412000064800F0BFFAC04674A5001054A600105F
:104130007CA50010ACA100107CA60010C8A1001046
:10414000D0A50010F8A500100CA3001070B5040055
:104150000A00457B2900FFF765FF6073280070BDEA
:1041600070B50400002967D0437B8B420ED0002934
:1041700011D0037B99420ED84B005B18033B0268B9
:10418000D0188378002B0CD1002056E00121FFF7D6
:10419000DDFF012051E0294B294A6821294800F020
:1041A00081FA002B20D0227B93421DD85A00D318CD
:1041B000033B2268D2182568EB5C8B421AD0002B97
:1041C0001BD0227B934218D85A00D318033B226895
:1041D000D21853788B4216D0002BF0D11A4B1B4AC1
:1041E0006B211B4800F05EFA144B154A68211548F4
:1041F00000F058FA4378137007E0104B104A68211A
:10420000104800F04FFA43785370002383704370D6
:1042100001222000FFF706FF0200617B814205D0EA
:104220002000FFF74BFE6073012006E0094B074AB0
:104230007121074800F036FA002070BDACA10010D3
:104240007CA60010C8A10010809F00103CA60010A2
:104250007CA500101CA60010F8B5DE4657464E4659
:104260004546E0B505000F0092460A9A934250D3A6
:104270001A0E91461E020A9A00233000494601F0A8
:1042800015FC80466C006419A400304B9C466444C5
:104290006368834200D260602B1FDBB29B46012B18
:1042A0003DD9C0239B012343802212011A60AB0039
:1042B000274A9958002907D0506901F0B9FB431CDF
:1042C0005800C0180338FDD253465A0123685A409B
:1042D000E0231A4080235B0123431A605A46012AD7
:1042E00028D980239B012343802212011A60434670
:1042F0006360424600233000494601F0D7FBAD0021
:10430000134B58510120F0BCBB46B246A946A0460B
:10431000F8BD104B104A3321104800F0C3F9012FAB
:10432000BFD1C0239B01234303221A60A368DB078C
:10433000FCD5C9E72168794003220A401A60A268C7
:104340000123BB401342FAD0CBE7C04600800040B7
:10435000D415002088A60010FCA600109CA6001012
:1043600030B583B00C2000F011F9FEF715FA0028E3
:104370000DD0002304E099002D4A2E4888500133C7
:10438000092BF8D92A4B2C4A5A6203B030BD2B4B6B
:1043900000229A6700F06CF9294B01221A60274B22
:1043A0005B6C012BFBD1274B03221A60234B9B6BC9
:1043B000012BFBD1013300930433234A012123480D
:1043C00000F054F805230093214A0121214800F010
:1043D0004DF8214B0093002202210420FFF73CFFFF
:1043E0001E4D00952B00002201210520FFF734FF10
:1043F000104C00942300002200210720FFF72CFF1F
:1044000000942300002200210820FFF725FF0A4B1B
:1044100000932300002200210920FFF71DFF0095D3
:104420002B00002200210620FFF716FFADE7C04653
:10443000D4150020006CDC021BB700000080004097
:104440003CB0004030B00040002F6859008002406E
:10445000008C864700C00240001BB700405973071C
:104460008000014BC0587047D4150020F0B5C646F7
:1044700000B504000E0017001D00374801F0D8FAFF
:104480008046364BFA18364B9A4239D8010038002C
:1044900001F0CEFA0200103A98235B009A4235D818
:1044A0006B1E062B38D8069B013B062B34D83F09E0
:1044B000474537D32D04069B1A0315432368002B69
:1044C00036DB284B9C4244D080225201264B1A6096
:1044D000264B1A60264B9B6811009943FAD126603F
:1044E000A060231DC02292011A4321231360236878
:1044F000002BFCDAE5600823136080BCB846F0BDF1
:104500001C4B1D4A11211D4800F0CCF81C4B1A4AC7
:1045100019211A4800F0C6F81A4B174A1C211748EF
:1045200000F0C0F8184B144A2321144800F0BAF8E0
:1045300022683F231340B342C3D1A3681B051B0D60
:104540008342BED1E368EE22D2021340AB42B8D11F
:10455000D3E780229201B9E7001BB70080E84BD374
:1045600080F8A93200C0024000E0004000F00040A6
:1045700000C000400CA700104CA800106CA7001051
:10458000C8A70010E4A7001030A8001080239B00EB
:104590000343014AD362704700800540024B1A680A
:1045A000024B5A607047C046701A002000800540D8
:1045B00010B50200164B8020C0051860154B164838
:1045C000186000290AD0154BE021C9041960002A9F
:1045D00009D1124B802212061A6010BD0C4BE0214B
:1045E000C9041960F3E753019B1A98008018000171
:1045F0000B4B186080235B04984202D3084B094A96
:104600001A60FFF7CBFF054B8022D2051A60E4E762
:1046100000B0054008200140FCFF010000A005405B
:10462000701A0020FFFFFF0010B5030010000C4AB5
:104630008024E4051460002B0DD001221343094AA5
:10464000094CD461094C5C401462516293620021B0
:10465000FFF7AEFF10BD034B0022DA61F7E7C0465B
:1046600000B0054000800540D3C007B02D3FF84F93
:10467000064BAA2212011A602F22DA60044B054A67
:104680001A60024B5B68002BFBDA70470040024067
:104690000060024000B0FA0000BEFDE710B5FFF771
:1046A000FBFF000010B582B00C001900002A0CD0EE
:1046B000084B002A0BD00192009323000200064809
:1046C00001F024FF0120FFF7E7FF044BF1E7034A65
:1046D000F1E7C04658A8001068A80010E09000104C
:1046E00070B52B4B2B4A1A602B4B2C4A1A602C4B63
:1046F0009A682A4B9343FAD12A4C01E008CC984798
:10470000294B9C42FAD3FFF72BFE234B274A1A6012
:10471000234B9B68DB43DB01FAD1254B40229A6790
:104720005A671A67DA66234C09E0234B234A87212C
:104730002348FFF7B7FF2000FEF718FC0834214B91
:104740009C4209D22368002BF5D0012BEDD120002B
:10475000FEF719FC0834F2E71B4CA1681B4DC02280
:10476000280001F06DFDA560EFF30583002B00D05C
:1047700000BEFEF773F8FEF7CFFBFEF767FF144CA1
:1047800001E008CC9847134B9C42FAD370BDC04659
:1047900000E00040BFCDFBFE00F00040FE7F3C008B
:1047A00000C00040E00E0020F00E0020FFFFFF01DF
:1047B00000F00140D80E002098A8001028A9001091
:1047C000B8A80010E00E002000ED00E0000000207E
:1047D000F00E0020F80E00200FB400B583B008489A
:1047E00001F064FE049B002B07D005A9019118007D
:1047F00001F06CFE034801F059FE0120FFF74CFF69
:1048000018A90010709500109A4200D28854704781
:10481000704710B5002802D00B684968984710BD52
:104820000100002007E083001B185B00501C08609B
:104830001078C01830380A681378303BDBB2092B87
:10484000F1D97047F0B5DE4657464E464546E0B5CD
:1048500083B093461F000C9B9A460D9C0E9B994675
:104860000F9B9B0703D0B8460F00060022E0019281
:10487000A34688464E46B9460700B44207D2551CA7
:104880004B4641462020B84701342A00F5E73D0059
:104890004F465C46019B9B46B1464646B8463700AC
:1048A0002E0007E0013C551C5346185D4346390075
:1048B000B0472A00002CF5D135003E0047460F9B3B
:1048C0009B0707D4100003B0F0BCBB46B246A94614
:1048D000A046F0BDB0464E46B9462F005D46531B7C
:1048E000B342EFD2541C4B4641462020B847220029
:1048F000F5E7F0B5CE46474680B585B09446984674
:104900000C9D0D9C0EAB1B789946109A119B129E24
:10491000B7071CD4002B0CD0F7070AD54F46002F41
:1049200002D10C37374204D0013B02E030272F552B
:104930000134944201D21F2CF8D9F70707D59C42C5
:1049400005D21F2C03D830272F550134F5E7F70681
:1049500015D5770505D4002C03D0944224D09C4271
:1049600022D00F9A102A2BD00F9A102A30D00F9AEB
:10497000022A35D01F2C02D830222A5501341F2C90
:1049800005D84A46002A31D02D222A5501340396F3
:1049900002930194009543466246FFF753FF05B02A
:1049A000C0BCB946B046F0BD621E012C06D00F9FB8
:1049B000102F01D01400D4E7023CD2E71400D0E756
:1049C000B206D1D41F2CCFD878222A550134D1E792
:1049D000B206CCD51F2CCAD858222A550134C9E7B3
:1049E0001F2CC7D860322A550134C3E7720703D59C
:1049F0002B222A550134CAE73207C8D520222A556E
:104A00000134C4E7F0B5DE4657464E464546E0B5AC
:104A100093B081468A46089209931CAB10CB1B7851
:104A20009B461E9D219B9846002C03D11023424695
:104A30009A4390468023DB0046461E4042461A4277
:104A400012D0002C22D000260EE03033D9B2771CD1
:104A50000AAB99552900200000F0EAFFAC4216D3BA
:104A60001F2F14D83E0004002900200000F0E0FFB2
:104A7000CBB2092BE9D94246920605D54121C91886
:104A8000C9B20A39C9B2E2E76121F8E72700434613
:104A90000693209B05931F9B049303955B4602930B
:104AA00001970AAB0093099B089A51464846FFF7C5
:104AB00020FF13B0F0BCBB46B246A946A046F0BDED
:104AC000F0B5DE4657464E464546E0B595B00890EF
:104AD00009910A920B931E9E1F9C20AB1B789B464C
:104AE000229B9946239D269B9A463300234303D15C
:104AF000103352469A4392468023DB0057461F40AC
:104B000052461A4219D0330023432DD0002714E017
:104B10003033DAB27B1C98460CABDA554A462B0090
:104B20003000210000F0C2FFA5421FD819D0434633
:104B30001F2B1BD8474606000C004A462B003000AE
:104B4000210000F0B3FFD3B2092BE1D952469206FF
:104B500005D54122D218D2B20A3AD2B2DAE761229E
:104B6000F8E7B145E3D901E00023984653460693A0
:104B7000259B0593249B04934B4603935B4602932A
:104B8000434601930CAB00930B9B0A9A0999089832
:104B9000FFF7AFFE15B0F0BCBB46B246A946A04633
:104BA000F0BD0000F0B5DE4657464E464546E0B53E
:104BB00091B083468A460C9298461A9C08941B9D95
:104BC000099522002B002000290001F0EAF90028B5
:104BD00000D0E5E001225242D74B2000290001F02D
:104BE000DBF9002800D0DBE001225242D34B200049
:104BF000290001F0BBF9002800D0D1E000220023F9
:104C0000089E3000099D290001F0B0F9002800D06D
:104C1000DDE008980999069007918023DB001E9A31
:104C20001A400D921E9A1A4201D106231C9306982F
:104C3000079904000D000A000600024300D1D1E0EC
:104C4000080D4005400DBE4CA44660440A03120BFB
:104C5000BC4B13431F0001F0B7F9BB4ABB4B01F03B
:104C600046F9BB4ABB4B01F023F904000D000022BA
:104C7000B94B3000390001F016F9B84AB84B01F0D1
:104C800036F902000B002000290001F011F901F0B3
:104C9000B3F9814601F098F904000D00B14AB24B16
:104CA00001F025F90022B14B01F002F901F0A4F95D
:104CB0000600AF4AAF4B2000290001F018F90400AC
:104CC0000D00300001F080F9AB4AAC4B01F00FF958
:104CD00002000B002000290001F0E5F804000D009F
:104CE00002000B0001F003F90A900B91A44BF3189A
:104CF00000261F0522002B002000290001F0D8F813
:104D00000E900F9122002B0000208021C90501F098
:104D1000CAF804000D0000229A4B0A980B9901F082
:104D2000CCF80022984B01F0C3F802000B000A985F
:104D30000B9901F0C2F80022944B01F0B9F802007F
:104D40000B000A980B9901F0B8F802000B00200044
:104D5000290001F0ADF802000B000E980F9901F048
:104D6000ACF80022774B01F0A3F832003B0001F0D1
:104D7000BEF806000F0004000D00069A079B01F024
:104D80000BF9002830D001235B429C46E14400220D
:104D90007D4B3000390001F090F804000D0023E055
:104DA0001E9B04931D9B03931C9B0293089A099BD3
:104DB0000092019343460C9A5146584600F0FCF885
:104DC00011B0F0BCBB46B246A946A046F0BD0023D8
:104DD000002406930794069680231B069C46654490
:104DE00007951AE7002399464B466333C62B1ED816
:104DF00004261E9B1B0526D52B0023430FD0644A97
:104E0000644B0698079901F0BFF8002879D000227A
:104E1000614B0698079901F0A9F8002871D01C9BF6
:104E20004B4506DD4A46981A431E1C9303E00526AF
:104E3000DFE700231C938023DB001E9A1A431E9297
:104E40000026002399461D9B9E4264D29F1B02238D
:104E50001E9A1A400A921E9A134202D0002E00D0C7
:104E600000274B46002B07D022002B0006980799FD
:104E700001F023F806900791002200230898099971
:104E800001F074F8002848D1444B1E9A1340049353
:104E900003971C9B0293069B079C00930194434637
:104EA0000C9A5146584600F087F8002E00D187E74B
:104EB0001E9B9B063DD54525441C4346020051469A
:104EC0002800D8474B46DA179B1853400522059215
:104ED000013E0496002203920A3202924A46D00F03
:104EE000019000934346220051465846FFF78AFD41
:104EF0000A9B002B00D163E702005F460C9E1D9DBC
:104F000054E01C9B002B9ED00D9B002B9BD01C9B28
:104F1000013B1C9397E7002799E7069C079D220019
:104F2000290080200006844661440B000692079306
:104F3000AAE76525C0E7C046FFFFEF7FFFFFEFFF51
:104F400001FCFFFF0000F03FFB799F501344D33F6B
:104F5000B3C8608B288AC63F0000F83F61436F6387
:104F6000A787D23F71A379094F930A400000E03F21
:104F70001655B5BBB16B0240EF39FAFE422EE63F43
:104F8000FF03000000002C400000244000001840F7
:104F90002D431CEBE2361A3F80842E41FFF7FFFFC2
:104FA000541C434651462020B8472200931BAB4275
:104FB000F6D3100004E7C046F0B5DE4657464E462D
:104FC0004546E0B595B00690079193469946209FD7
:104FD0001E9A1F9B1000190000F0E3FF002831D13A
:104FE00001225242BF4B1E981F9900F0BFFF0028BC
:104FF00037D101225242BC4B1E981F9900F0CCFFC2
:1050000000283DD10022B94B1E981F9900F0C4FF23
:10501000002850D10022B64B1E981F9900F0A6FF21
:10502000002848D1002200231E981F9900F09EFFFF
:10503000002850D100239846229B5B0500D4B6E09F
:10504000002458E0229B0393219B029303230193A6
:10505000A84B00934B465A4607990698FFF7F2FB78
:105060000EE1229B0393219B029304230193A24B05
:1050700000934B465A4607990698FFF7E3FBFFE07B
:105080000423229A1A4022990B4210D09B4B002AEB
:105090000FD0042222990391219902910192009349
:1050A0004B465A4607990698FFF7CCFBE8E0944B2D
:1050B000EDE70322EEE7229B0493219B03930297E3
:1050C0001E9B1F9C009301944B465A4607990698D5
:1050D000FFF768FDD4E01E9A1F9B0020002100F01E
:1050E000E2FE1E901F9101239846A5E70CAB3022EB
:1050F0001A55013F01341F2C01D8092FF6D81E98EC
:105100001F9900F079FF050000F05EFF02000B0020
:105110001E981F9900F0C7FEFA007A4B9B181A6878
:105120005B680A920B9300F0E2FE0890099100F090
:1051300087FF060000F044FF02000B000898099961
:1051400000F0B1FE0890099100226F4B00F024FF9F
:1051500000282ED00136300000F032FF02000B0094
:105160000A980B9900F008FF002801D001350026AD
:10517000002F2CD1280000F027FF02000B001E9802
:105180001F9900F090FE06000F0000225E4B00F019
:10519000EDFE002846D100225B4B3000390000F0C4
:1051A000FBFE00283ED1EB073CD501353AE006274F
:1051B00046E70022544B0898099900F0D7FE0028D2
:1051C000D6D1002E01D0F307D2D50136D0E7AA46BA
:1051D0001F2C11D8013F0A21300000F029FC651C6A
:1051E00030310CAB19550A21300000F021FC092E9A
:1051F0000ED906002C00EBE755461F2C0CD87B1E61
:10520000002F09D00CAA302111551F000134F4E7FA
:105210002B0055461C00F0E71F2C03D80CAB2E22A8
:105220001A5501341F2C10D80A21280000F0D8FB91
:10523000661C30310CAB19550A21280000F0D0FB58
:10524000051E01D03400EDE734000323229A1340F9
:10525000012B1CD01F2C06D84346002B32D00CABA0
:105260002D221A550134229B0393219B0293019412
:105270000CAB00934B465A4607990698FFF7E2FAA3
:1052800015B0F0BCBB46B246A946A046F0BD219B76
:10529000002B13D04346002B02D10C3313420FD006
:1052A000219B013B2193190003E00CAB30221A55DE
:1052B00001348C42CED21F2CF7D9CBE72199F8E7E5
:1052C0002199F6E7229B5B0704D50CAB2B221A55DC
:1052D0000134C8E7229B1B07C5D50CAB20221A5509
:1052E0000134C0E7FFFFEFFFFFFFEF7F65CDCD414A
:1052F00065CDCDC144A9001048A900103CA90010FB
:1053000038A9001030AB00100000E03FF0B5DE46D9
:1053100057464E464546E0B593B082468B4690468A
:105320001193002900D1EBE200275546119B187814
:10533000002800D1E7E2252809D07C1C43463A002A
:105340005946A847119B013311932700EEE701331B
:1053500011930024119A11780B00203BD8B2102829
:1053600003D88300D048C3589F460B00303BDBB2C4
:10537000092B2CD92A292FD000230A93119B1A78A4
:105380002E2A39D000239A46119A1378683BD9B255
:10539000122976D88B00C549CB589F4601231C4360
:1053A00001321192D6E702231C4301321192D1E758
:1053B00004231C4301321192CCE708231C43013221
:1053C0001192C7E710231C4301321192C2E711A8C2
:1053D000FFF726FA0A90D1E71C9B1A1D1C92186849
:1053E000002804DB0A90119B01331193C6E70223C6
:1053F0001C4343420A93F6E78022D20014435A1C0E
:1054000011925A781300303BDBB2092B04D92A2AB7
:1054100007D000239A46B7E711A8FFF701FA8246A2
:10542000B2E71C9B1A1D1C921868002804DB8246F8
:10543000119B01331193A7E70020F8E780235B005D
:105440002343511C119152786C2A01D01C0018E0A2
:10545000C0239B001C430131119112E080232343A0
:10546000511C11915278682A01D01C0009E0C02318
:105470001C430131119104E080235B001C43013285
:105480001192119B18780300253BDAB2532A00D9F8
:105490002CE29300864AD3589F4680239B001C43EE
:1054A00001321192EDE780235B001C43013211921F
:1054B000E7E7782809D0582838D06F2838D06228F4
:1054C00038D010239C430A2600E01026582833D0F9
:1054D000692803D0642801D00C229443630501D5C8
:1054E0000122944369282AD0642828D0A30500D536
:1054F0009FE0E30500D5B8E0630600D4CAE01C9A3B
:10550000111D1C911168FF220A4005940A9B049307
:1055100053460393029600230193009243463A00B8
:1055200059462800FFF76EFA070027E01026CDE75E
:105530000826CBE70226C9E720221443C8E7A305C3
:1055400020D4E30550D4630666D51C9A111D1C9126
:105550001168FF220A40D317D118594005940A9BBD
:105560000493534603930296D20F0192009143464F
:105570003A0059462800FFF745FA0700119B01330E
:105580001193D3E61C9BDA1D07218A4311000831D1
:105590001C91116853689C46DB170C930D930C9A71
:1055A0000D9B100048400E90624653400F930E989A
:1055B0000F990C9A0D9B801A99410E900F910894A7
:1055C0000A9B07935346069304960023059363466C
:1055D000DA0F02920090019143463A0059462800A2
:1055E000FFF76EFA0700C9E71C9A111D1C9112689B
:1055F000D317D118594005940A9B0493534603933B
:105600000296D20F0192009143463A005946280073
:10561000FFF7F8F90700B1E7230605D51C9A111D1D
:105620001C910023D25E96E71C9A111D1C911268F2
:1056300091E71C9BDA1D07218A43110008311C9158
:1056400008940A9B079353460693049600230593F8
:105650000293136854680093019443463A005946F4
:105660002800FFF72DFA070088E71C9A111D1C91EE
:1056700005940A9B049353460393029600230193D7
:105680001368009343463A0059462800FFF7BAF9D9
:10569000070073E723060DD51C9A111D1C91126893
:1056A0001204120C31E7C04650A9001094A9001052
:1056B000E0A900101C9A111D1C91126825E74628CC
:1056C0001AD01C9B0733072293431A0008321C92FE
:1056D00004940A9A0392524602925C681B680093F3
:1056E000019443463A0059462800FFF765FC07003D
:1056F000119B0133119319E620231C43E1E767282E
:1057000001D0472802D180231B011C43452801D02A
:10571000472801D120231C431C9B073307229343B6
:105720001A0008321C9204940A9A0392524602927A
:105730005C681B680093019443463A005946280070
:10574000FFF730FA0700119B01331193EEE50223B6
:105750001A002240924623421FD001241C9B1A1D8E
:105760001C927A1C9146187843463A005946A8473D
:105770005346002B16D1119B013311934F46D5E5AB
:10578000561C434659462020B847230032005C1C73
:105790009D42F5D83D001700E0E701233A002F00B5
:1057A0000A9DF4E74A46A9460A9D06E0571C43466F
:1057B00059462020C84734003A00661CA542F5D857
:1057C0004D469146D7E71C9B1A1D1C921B689946B3
:1057D0005346002B00D1013B4E4601E00136130039
:1057E0003278002A02D05A1E002BF7D14B46F21A0B
:1057F00010928023DB0026001E401C4203D052453D
:1058000001D95346109302231A0022400B922342DF
:1058100005D03A0037004C46A946554620E03A00EC
:10582000109B5F46B3462E0006E0551C43463900E8
:105830002020B04723002A005C1C0A999942F4D822
:1058400035005E46BB46109437004C46A946554687
:1058500006E01D000134561C43465946C847320035
:105860002078002804D0002FF4D06B1E002DF0D13A
:1058700017004D460B9B002B03D1119B0133119355
:1058800054E50A9F109B06E0561C434659462020CB
:10589000A847230032005C1C9F42F5D81700ECE7B4
:1058A00021231C431C9B1A1D1C921B68009305940A
:1058B0000823049353460393102302930023019378
:1058C00043463A0059462800FFF79CF80700119B11
:1058D000013311932AE57C1C43463A0059462520A2
:1058E000A847119B0133119327001FE57C1C4346F9
:1058F0003A005946A847119B01331193270015E53B
:105900000A4B9A4610E5AA46474502D343465A1E1B
:1059100000E03A00434659460020D047380013B013
:10592000F0BCBB46B246A946A046F0BD11480010E7
:105930000EB410B585B0010007AC08CC0394012269
:10594000009452420348FFF7E1FC05B010BC08BCCC
:1059500003B018470948001000B585B002900391C4
:105960000121009313004A4202A90248FFF7CEFC2E
:1059700005B000BD1348001001480421014B184731
:10598000700E0020A959001010B5010018231B88C3
:1059900014221088984710BD10B5010018231B88E9
:1059A00016221088984710BDF0B5C64600B507000E
:1059B0000E0000250123984600E00135B5420AD2C9
:1059C000AC003C192068FFF7DFFF20600028F4D10D
:1059D00000239846F1E7404680BCB846F0BD000081
:1059E000124A936F9B0815D29066D166002905D0A4
:1059F000FFE7FFE7FFE7516F106F704704B58021A5
:105A00000906C2175140002800D0C84303F000FB2C
:105A1000002104BDF0B5146E556E576F166FFFF779
:105A2000E3FF1466556657671667F0BD000000D0A7
:105A3000114A936F9B0813D210665166002905D056
:105A4000FFE7FFE7FFE7516F106F704704B50028CD
:105A500001D00020C04303F0DBFA002104BDC046A2
:105A6000F0B5146E556E576F166FFFF7E5FF1466AD
:105A7000556657671667F0BD000000D094464A4A45
:105A8000926F9208624601D228E0C046F0B5464EB9
:105A9000346E756E776F366F00F020F89446424A88
:105AA00014665566576716676246F0BD94463E4ACF
:105AB000926F9208624601D254E0C046F0B53A4E69
:105AC000346E756E776F366F00F04CF89446364A38
:105AD00014665566576716676246F0BD002B24DBD7
